{
  "_format": "hh-sol-artifact-1",
  "contractName": "Whitelist",
  "sourceName": "blockchain/contracts/Whitelist.sol",
  "abi": [
    {
      "inputs": [
        {
          "internalType": "uint8",
          "name": "_maxWhiteListedAddresses",
          "type": "uint8"
        }
      ],
      "stateMutability": "nonpayable",
      "type": "constructor"
    },
    {
      "inputs": [],
      "name": "addAddressToWhitelist",
      "outputs": [],
      "stateMutability": "nonpayable",
      "type": "function"
    },
    {
      "inputs": [],
      "name": "maxWhiteListedAddresses",
      "outputs": [
        {
          "internalType": "uint8",
          "name": "",
          "type": "uint8"
        }
      ],
      "stateMutability": "view",
      "type": "function"
    },
    {
      "inputs": [],
      "name": "numAddressesWhitelisted",
      "outputs": [
        {
          "internalType": "uint8",
          "name": "",
          "type": "uint8"
        }
      ],
      "stateMutability": "view",
      "type": "function"
    },
    {
      "inputs": [
        {
          "internalType": "address",
          "name": "",
          "type": "address"
        }
      ],
      "name": "whiteListedAddress",
      "outputs": [
        {
          "internalType": "bool",
          "name": "",
          "type": "bool"
        }
      ],
      "stateMutability": "view",
      "type": "function"
    }
  ],
  "bytecode": "0x608060405234801561001057600080fd5b506040516105ff3803806105ff83398181016040528101906100329190610091565b80600160006101000a81548160ff021916908360ff160217905550506100be565b600080fd5b600060ff82169050919050565b61006e81610058565b811461007957600080fd5b50565b60008151905061008b81610065565b92915050565b6000602082840312156100a7576100a6610053565b5b60006100b58482850161007c565b91505092915050565b610532806100cd6000396000f3fe608060405234801561001057600080fd5b506004361061004c5760003560e01c806303108fe4146100515780634011d7cd1461006f5780638e7314d91461008d578063c166d13d14610097575b600080fd5b6100596100c7565b60405161006691906102a6565b60405180910390f35b6100776100da565b60405161008491906102a6565b60405180910390f35b6100956100eb565b005b6100b160048036038101906100ac9190610324565b61026a565b6040516100be919061036c565b60405180910390f35b600160009054906101000a900460ff1681565b60018054906101000a900460ff1681565b6000803373ffffffffffffffffffffffffffffffffffffffff1673ffffffffffffffffffffffffffffffffffffffff16815260200190815260200160002060009054906101000a900460ff1615610177576040517f08c379a000000000000000000000000000000000000000000000000000000000815260040161016e906103e4565b60405180910390fd5b600160009054906101000a900460ff1660ff1660018054906101000a900460ff1660ff16106101db576040517f08c379a00000000000000000000000000000000000000000000000000000000081526004016101d290610476565b60405180910390fd5b60016000803373ffffffffffffffffffffffffffffffffffffffff1673ffffffffffffffffffffffffffffffffffffffff16815260200190815260200160002060006101000a81548160ff02191690831515021790555060018060018282829054906101000a900460ff1661025091906104c5565b92506101000a81548160ff021916908360ff160217905550565b60006020528060005260406000206000915054906101000a900460ff1681565b600060ff82169050919050565b6102a08161028a565b82525050565b60006020820190506102bb6000830184610297565b92915050565b600080fd5b600073ffffffffffffffffffffffffffffffffffffffff82169050919050565b60006102f1826102c6565b9050919050565b610301816102e6565b811461030c57600080fd5b50565b60008135905061031e816102f8565b92915050565b60006020828403121561033a576103396102c1565b5b60006103488482850161030f565b91505092915050565b60008115159050919050565b61036681610351565b82525050565b6000602082019050610381600083018461035d565b92915050565b600082825260208201905092915050565b7f53656e6465722068617320616c72656164792077686974656c69737465640000600082015250565b60006103ce601e83610387565b91506103d982610398565b602082019050919050565b600060208201905081810360008301526103fd816103c1565b9050919050565b7f4d6f7265206164647265737365732063616e742062652061646465642c206c6960008201527f6d69742072656163686564000000000000000000000000000000000000000000602082015250565b6000610460602b83610387565b915061046b82610404565b604082019050919050565b6000602082019050818103600083015261048f81610453565b9050919050565b7f4e487b7100000000000000000000000000000000000000000000000000000000600052601160045260246000fd5b60006104d08261028a565b91506104db8361028a565b92508260ff038211156104f1576104f0610496565b5b82820190509291505056fea2646970667358221220c26862c4ac353aab655241f9b4dcf4120e8f572ef11f6dbe1b00b625375b807064736f6c634300080f0033",
  "linkReferences": {},
  "deployedLinkReferences": {}
}